{
  "contractName": "exam",
  "abi": [
    {
      "constant": true,
      "inputs": [
        {
          "name": "",
          "type": "uint256"
        }
      ],
      "name": "students",
      "outputs": [
        {
          "name": "",
          "type": "address"
        }
      ],
      "payable": false,
      "stateMutability": "view",
      "type": "function",
      "signature": "0x06ead22e"
    },
    {
      "constant": false,
      "inputs": [
        {
          "name": "examId",
          "type": "uint256"
        }
      ],
      "name": "student",
      "outputs": [
        {
          "name": "",
          "type": "uint256"
        }
      ],
      "payable": false,
      "stateMutability": "nonpayable",
      "type": "function",
      "signature": "0x35f34232"
    },
    {
      "constant": true,
      "inputs": [],
      "name": "getStudents",
      "outputs": [
        {
          "name": "",
          "type": "address[16]"
        }
      ],
      "payable": false,
      "stateMutability": "view",
      "type": "function",
      "signature": "0xf1d064b3"
    }
  ],
  "bytecode": "0x608060405234801561001057600080fd5b506102f5806100206000396000f3fe608060405260043610610057576000357c0100000000000000000000000000000000000000000000000000000000900463ffffffff16806306ead22e1461005c57806335f34232146100d7578063f1d064b314610126575b600080fd5b34801561006857600080fd5b506100956004803603602081101561007f57600080fd5b8101908080359060200190929190505050610179565b604051808273ffffffffffffffffffffffffffffffffffffffff1673ffffffffffffffffffffffffffffffffffffffff16815260200191505060405180910390f35b3480156100e357600080fd5b50610110600480360360208110156100fa57600080fd5b81019080803590602001909291905050506101ae565b6040518082815260200191505060405180910390f35b34801561013257600080fd5b5061013b610224565b6040518082601060200280838360005b8381101561016657808201518184015260208101905061014b565b5050505090500191505060405180910390f35b60008160108110151561018857fe5b016000915054906101000a900473ffffffffffffffffffffffffffffffffffffffff1681565b6000604682101580156101c2575060648211155b15156101cd57600080fd5b336000836010811015156101dd57fe5b0160006101000a81548173ffffffffffffffffffffffffffffffffffffffff021916908373ffffffffffffffffffffffffffffffffffffffff160217905550819050919050565b61022c6102a5565b600060108060200260405190810160405280929190826010801561029b576020028201915b8160009054906101000a900473ffffffffffffffffffffffffffffffffffffffff1673ffffffffffffffffffffffffffffffffffffffff1681526020019060010190808311610251575b5050505050905090565b6102006040519081016040528060109060208202803883398082019150509050509056fea165627a7a7230582045bca7b575e52a8e0c06bfa30efcc5fb0b2771e6fd49b85746f9eb2b2e72f8580029",
  "source": "pragma solidity ^0.5.0;\r\n\r\ncontract exam{\r\n    address[16] public students;\r\n\r\nfunction student(uint examId) public returns(uint){\r\n\r\n    require((examId >=70 && examId <= 100));\r\n\r\n    students[examId] = msg.sender;\r\n\r\n    return examId;\r\n\r\n}\r\nfunction getStudents() public view returns (address[16] memory){\r\n\r\n return students;\r\n\r\n}\r\n\r\n\r\n\r\n}\r\n\r\n\r\n\r\n\r\n\r\n\r\n",
  "sourcePath": "C:/Users/HP/Desktop/devloperPRO/Block-Chian Stuff/tut/contracts/exam.sol",
  "compiler": {
    "name": "solc",
    "version": "0.5.0+commit.1d4f565a.Emscripten.clang"
  },
  "schemaVersion": "3.0.1",
  "updatedAt": "2023-08-13T07:53:31.425Z",
  "devdoc": {
    "methods": {}
  },
  "userdoc": {
    "methods": {}
  }
}